:1000000095C600000C9445370C9470370C949B37C0
:100010000C94C6370C94F1370C941C380C94473868
:100020000C947238B4C60000B2C60000B0C600001E
:10003000AEC60000ACC60000AAC60000A8C60000FC
:10004000A6C600000C94702BA2C60000A0C600003B
:100050000C94B42D9CC600009AC600000C949D38E8
:1000600096C600000C94F4350C942A3690C6000015
:100070008EC600008CC600008AC6000088C600003C
:100080000C949C2B84C6000082C6000080C6000031
:100090007EC600007CC600007AC600000C94773053
:1000A00076C6000074C600000C94C82B70C6000011
:1000B0006EC600006CC600006AC600000C94F42BEB
:1000C00066C6000064C6000062C6000060C600008C
:1000D0005EC600005CC600005AC6000058C600009C
:1000E00056C600001F37E936F136FD360A372B3782
:1000F0003837093A0E3A133A1D3A273AA03A313ABC
:10010000393A413A4B3A553A5F3A6E3A783AA03A20
:10011000823A8C3A963AC33AC63AB53AB93ABF3AB5
:10012000FD3ACA3ACE3AD43AD83ADC3AE23AE63A1A
:10013000EA3AFD3AF03AF43AF83A00407A10F35AC3
:1001400000A0724E18090010A5D4E80000E8764817
:10015000170000E40B54020000CA9A3B000000E1C3
:10016000F505000080969800000040420F00000056
:10017000A08601000000102700000000E803000036
:1001800000006400000000000A0000000000010000
:10019000000000002C76D888DC674F0823DFC1DF21
:1001A000AE59E1B1B796E5E3E453C63AE651997624
:1001B00096E8E6C28426EB898C9B62ED407C6FFC5E
:1001C000EFBC9C9F40F2BAA56FA5F490055A2AF7A0
:1001D0005C936B6CF9676DC11BFCE0E40D47FEF5A9
:1001E00020E6B500D0ED902E030094357705008011
:1001F000841E080000204E0A000000C80C33333370
:10020000330F986E12831141EF8D2114893BE6550F
:1002100016CFFEE6DB18D1844B381BF77C1D901DF2
:10022000A4BBE424203284725E228100C9F124EC54
:10023000A1E53D2700000000003E5B4F5B3E3E6BAA
:100240004F6B3E1C3E7C3E1C183C7E3C181C577D70
:10025000571C1C5E7F5E1C00183C1800FFE7C3E7BC
:10026000FF0018241800FFE7DBE7FF30483A060ECE
:100270002629792926407F050507407F05253F5A15
:100280003CE73C5A7F3E1C1C08081C1C3E7F142285
:100290007F22145F5F005F5F06097F017F00668930
:1002A000956A606060606094A2FFA29408047E0476
:1002B0000810207E201008082A1C08081C2A08089C
:1002C0001E101010100C1E0C1E0C30383E3830065C
:1002D0000E3E0E06000000000000005F0000000758
:1002E000000700147F147F14242A7F2A1223130886
:1002F000646236495620500008070300001C224162
:10030000000041221C002A1C7F1C2A08083E080805
:1003100000807030000808080808000060600020B5
:10032000100804023E5149453E00427F4000724998
:100330004949462141494D331814127F102745453C
:1003400045393C4A49493141211109073649494952
:1003500036464949291E00001400000040340000C0
:100360000008142241141414141400412214080229
:10037000015909063E415D594E7C1211127C7F499C
:100380004949363E414141227F4141413E7F4949F1
:1003900049417F090909013E414151737F0808081D
:1003A0007F00417F41002040413F017F08142241EE
:1003B0007F404040407F021C027F7F0408107F3E48
:1003C0004141413E7F090909063E4151215E7F09B5
:1003D000192946264949493203017F01033F40401C
:1003E000403F1F2040201F3F4038403F6314081407
:1003F0006303047804036159494D43007F4141413F
:100400000204081020004141417F0402010204401F
:1004100040404040000307080020545478407F28A3
:100420004444383844444428384444287F38545499
:10043000541800087E090218A4A49C787F080404BC
:100440007800447D40002040403D007F102844005B
:1004500000417F40007C047804787C0804047838EC
:1004600044444438FC1824241818242418FC7C081C
:10047000040408485454542404043F44243C404099
:10048000207C1C2040201C3C4030403C442810284C
:10049000444C9090907C4464544C44000836410095
:1004A0000000770000004136080002010204023C0F
:1004B0002623263C1EA1A161123A4040207A3854DE
:1004C0005455592155557941225454784221555457
:1004D000784020545579400C1E52721239555555AA
:1004E00059395454545939555454580000457C4195
:1004F0000002457D420001457C407D1211127DF0D5
:10050000282528F07C545545002054547C547C0AFE
:10051000097F4932494949323A4444443A324A48C7
:1005200048303A4141217A3A42402078009DA0A0CB
:100530007D3D4242423D3D4040403D3C24FF24241D
:10054000487E4943662B2FFC2F2BFF0929F620C03C
:10055000887E090320545479410000447D4130488D
:10056000484A32384040227A007A0A0A727D0D19D0
:10057000317D2629292F28262929292630484D4032
:1005800020380808080808080808382F10C8ACBA2E
:100590002F102834FA00007B000008142A142222AD
:1005A000142A14085500550055AA55AA55AAFF55F6
:1005B000FF55FF000000FF00101010FF001414147E
:1005C000FF001010FF00FF1010F010F0141414FCC6
:1005D000001414F700FF0000FF00FF1414F404FCE3
:1005E000141417101F10101F101F1414141F0010C4
:1005F0001010F0000000001F101010101F1010103D
:1006000010F010000000FF1010101010101010104B
:10061000FF10000000FF140000FF00FF00001F108B
:10062000170000FC04F414141710171414F404F445
:100630000000FF00F714141414141414F700F71436
:100640001414171410101F101F141414F414101085
:10065000F010F000001F101F0000001F1400000029
:10066000FC140000F010F01010FF10FF141414FF21
:10067000141010101F00000000F010FFFFFFFFFF1C
:10068000F0F0F0F0F0FFFFFF0000000000FFFF0FB0
:100690000F0F0F0F3844443844FC4A4A4A347E0254
:1006A000020606027E027E026355494163384444D5
:1006B0003C04407E201E2006027E020299A5E7A58A
:1006C000991C2A492A1C4C7201724C304A4D4D30FB
:1006D0003048784830BC625A463D3E494949007E20
:1006E0000101017E2A2A2A2A2A44445F44444051B7
:1006F0004A444040444A51400000FF0103E080FF6B
:10070000000008086B6B083612362436060F090FF6
:1007100006000018180000001010003040FF010112
:10072000001F01011E00191D1712003C3C3C3C003B
:10073000000000002200FF2100000103070F1F3FFF
:100740007F0080C0E0F0F8FCFEDB40A4A62EAF20C6
:1007500000A1C8D300408DAED580A8000060000085
:10076000000000000000000000000000E0000000A9
:100770000000000000000000000001E00000000098
:1007800000000000000000000001F0000000000078
:10079000000000000000000003F000000000000066
:1007A0000000000000000007F00000000000000052
:1007B00000000000000007F800000000000000003A
:1007C00000000000000FF800000003C0007E0000E1
:1007D00001E0007F0FF800000003C000FE000001F0
:1007E000E000FFEFF800000003C000FE000001E0A1
:1007F00000FFFFF800000003C000F00000000F0041
:100800007FFE7FC0000003C000F00000000F003F2B
:10081000FE7FF83FF1FBCFFCFEF3BC3DEFE01FFE97
:100820007FFF7FFBFFDFFEFEFFBC3DEFE01FC6FF4B
:10083000FF7FFBFFDFFEFEFFBC3DEFE00FE3C7FEE7
:10084000787BC3DE1EF0FFBC3DEF0007FF87FC781E
:100850007BC3DE1EF0F83C3DEF0001FFFFF0007BA4
:10086000C3C01EF0F03C3DEF0001F37FE03FFBC34F
:10087000CFFEF0F03C3DEF0003E33F807FFBC3DFA2
:10088000FEF0F03C3DEF0007E73C00787BC3DE1E46
:10089000F0F03C3DEF0007FFBE00787BC3DE1EF0AA
:1008A000F03C3DEF0007FFFE00787BC3DE1EF0F05A
:1008B0003C3DEF000FFFFE007FFBFFDFFEF0F03F4F
:1008C000FDEFE00FFFFF007FFBFFDFFEF0F03FFDDD
:1008D000EFE00FF9FF003E79F9CF9EF0F01F3DE702
:1008E000E01FF1FF00000000000000000000000019
:1008F0001F80FF007FFFFFFFFFFFFFFFFFFFE01CE8
:10090000007F007FFFFFFFFEB46D888D18E00000C0
:100910001F007FFFFFFFFE95AD7DB577E000000F64
:10092000007FFFFFFFFEA5AD9D8D19E000000600D2
:100930007FFFFFFFFEB5ADEDB57EE00000000000DB
:1009400001800000000000000000000380000000A3
:1009500000000000000007C00000000000000000D0
:100960000007C00000000000000000000FC00000F1
:10097000000000000000001FE00000000000000078
:1009800000001FE00000000000000000003FE00049
:1009900000000000000000003FF000000000000028
:1009A0000000007FF0000000000000001FF87FF052
:1009B000000000000000003FFE7FF000000000008B
:1009C00000003FFF7FF0000000000000001FFFFB61
:1009D000E0000000000000000FFFF9FFC000000071
:1009E0000000000FFFF9FFF800000000000007FF03
:1009F000F1FFFF00000000000003FC73FFFF800018
:100A00000000000001FE3FFFFF800000000000002A
:100A1000FF1E0FFF000000000000007FFE1FFC0013
:100A20000000000000003FFFFFF800000000000091
:100A3000000FDFFFE0000000000000001F19FFC0F2
:100A4000000000000000003F3CFF0000000000002C
:100A500000007E7CF800000000000000007FFE7CAB
:100A60000000000000000000FFFFFC00000000008C
:100A7000000000FFFFFE0000000000000000FFFF7C
:100A8000FE0000000000000001FFEFFE000000007B
:100A900000000001FFCFFE0000000000000003FF87
:100AA00007FE0000000000000003FC07FE0000003D
:100AB0000000000003F003FE000000000000000141
:100AC0008000FE000000000000000000007E00002A
:100AD00000000000000000003E00000000000000D8
:100AE0000000000C000000000000078000FC000077
:100AF00003C0000000078001FC000003C0000000EC
:100B0000078001FC000003C0000000078001E00036
:100B100000001E000000078001E00000001E007FB2
:100B2000E3F79FF9FDE7787BDFC0FFF7FFBFFDFD2F
:100B3000FF787BDFC0FFF7FFBFFDFDFF787BDFC0E5
:100B4000F0F787BC3DE1FF787BDE00F0F787BC3D26
:100B5000E1F0787BDE0000F787803DE1E0787BDE26
:100B6000007FF7879FFDE1E0787BDE00FFF787BF1E
:100B7000FDE1E0787BDE00F0F787BC3DE1E0787BCB
:100B8000DE00F0F787BC3DE1E0787BDE00F0F78720
:100B9000BC3DE1E0787BDE00FFF7FFBFFDE1E07FD9
:100BA000FBDFC0FFF7FFBFFDE1E07FFBDFC07CF3B1
:100BB000F39F3DE1E03E7BCFC0000000000000005D
:100BC00000000000FFFFFFFFFFFFFFFFFFFFC0FF70
:100BD000FFFFFFFD68DB111A31C0FFFFFFFFFD2B98
:100BE0005AFB6AEFC0FFFFFFFFFD4B5B3B1A33C0B0
:100BF000FFFFFFFFFD6B5BDB6AFDC000000A0B021D
:100C0000090C0D0E0807030401000000000000009D
:100C100000000000000000000000000000000000D4
:100C20000000000000000012111000000000000091
:100C300000000000000000000000000000000000B4
:100C400000010210202008081020401020408002DF
:100C50000102010804020101020408102040808002
:100C60004020100804020180040201804020100886
:100C7000040201080402010102040810204080015E
:100C8000020408102040800505050507050808082E
:100C900008020202020A0A0808040404040101010D
:100CA0000101010101030303030303030304070715
:100CB000070C0C0C0C0C0C0C0C02020202060606B3
:100CC00006060606060B0B0B0B0B0B0B0B0000208E
:100CD000002300260029002C002F00320000010014
:100CE0000003010601090100002200250028002B55
:100CF000002E003100340002010000050108010B44
:100D00000100002100240027002A002D00300033BC
:100D10000001010000040107010A01006C082F0C0A
:100D20003B0E04335C368308860C530E11241FBE21
:100D3000CFEFD1E2DEBFCDBF00E00CBF13E0A0E0FB
:100D4000B2E0EAEDF7E800E00BBF02C007900D92B9
:100D5000A43FB107D9F727E0A4EFB3E001C01D928B
:100D6000AD33B207E1F716E0C3E9D6E000E006C014
:100D700021970109802FFE010E94A43ECE38D107A1
:100D800080E00807A9F70E948B360C94DC4338C931
:100D9000CF93DF9300D000D0CDB7DEB70E94912073
:100DA00080E090E026960FB6F894DEBF0FBECDBF70
:100DB000DF91CF910895DF92EF92FF920F931F93EF
:100DC000CF93DF9300D000D0CDB7DEB78C01F52EE6
:100DD000D62EE72E6CEB72E00E943A3C88E08F152D
:100DE00028F060E070E0C8010E94B03D6F2D70E017
:100DF00061507109C8010E94B03D68E772E0C80106
:100E00000E94793D88E08D1528F060E070E0C8010F
:100E10000E94B03D6D2DC8010E94873D68E772E0D9
:100E2000C8010E94793D88E08E1528F060E070E0EE
:100E3000C8010E94B03D6E2DC8010E94873DC801C7
:100E400026960FB6F894DEBF0FBECDBFDF91CF91CF
:100E50001F910F91FF90EF90DF900895DF92EF9236
:100E6000FF920F931F93CF93DF9300D000D0CDB7A5
:100E7000DEB78C01F22EE32ED42E6CEB72E00E94D2
:100E80003A3C88E08D1528F060E070E0C8010E94CF
:100E9000B03D6D2DC8010E94873D6AE772E0C80130
:100EA0000E94793D88E08E1528F060E070E0C8016E
:100EB0000E94B03D6E2DC8010E94873D6AE772E036
:100EC000C8010E94793D6F2D70E06053784FC801D2
:100ED0000E94DE3DC80126960FB6F894DEBF0FBE15
:100EE000CDBFDF91CF911F910F91FF90EF90DF90D9
:100EF00008950895CF92DF92EF92FF920F931F9380
:100F0000CF93DF93CDB7DEB7AD970FB6F894DEBFC2
:100F10000FBECDBF8C016CEB72E00E943A3C809119
:100F200000058FA387E993E09EA38DA3809101051F
:100F30009091020599A788A78091030590910405D7
:100F4000A0910505B09106058AA79BA7ACA7BDA7F0
:100F5000BE016F5F7F4FCE0185960E94891ECD88AE
:100F6000DE88EF88F88CA7019601C701B6010E94C0
:100F70008134882331F069E17CEFC8010E94B03DE3
:100F800011C022E0B701A601CE0185960E94193D4D
:100F9000BE016B5D7F4FC8010E94733DCE018596F7
:100FA0000E94D03B6CE772E0C8010E94793DC80105
:100FB000AD960FB6F894DEBF0FBECDBFDF91CF91D7
:100FC0001F910F91FF90EF90DF90CF900895CF92F7
:100FD000DF92EF92FF920F931F93CF93DF93CDB7E2
:100FE000DEB7AD970FB6F894DEBF0FBECDBF8C0154
:100FF0006CEB72E00E943A3C809109058FA385EA70
:1010000093E09EA38DA380910A0590910B0599A76B
:1010100088A780910C0590910D05A0910E05B091C7
:101020000F058AA79BA7ACA7BDA7BE016F5F7F4F27
:10103000CE0185960E94C31ECD88DE88EF88F88C8D
:10104000A7019601C701B6010E948134882331F0BF
:1010500069E17CEFC8010E94B03D11C022E0B701F8
:10106000A601CE0185960E94193DBE016B5D7F4FA2
:10107000C8010E94733DCE0185960E94D03B6FE768
:1010800072E0C8010E94793DC801AD960FB6F89490
:10109000DEBF0FBECDBFDF91CF911F910F91FF90AB
:1010A000EF90DF90CF900895CF93DF93EC01842FE2
:1010B000462F682F88EC94E00E94D924BE0188EC6A
:1010C00094E0DF91CF910C94C3368AEF93E00E94B5
:1010D0001724811100C00895EF920F9384E0E82E49
:1010E00004E026E032E04AE052E06EE072E08AEF8F
:1010F00093E00E9437216CEB72E084EF93E00F9154
:10110000EF900C943A3C84EF93E00C94D03B83E155
:101110000E94683B892B51F48091E804811106C03C
:101120009091E90481E089278093E90408950F9361
:10113000CF93DF9326E040E855E260E070E083E97A
:1011400096E00E948F35C5E2D2E082E0C134D80734
:1011500031F08881229661E00E94FE3AF6CF20E0CD
:1011600042E060E188EC94E00E94F2244BE552E01A
:1011700060E088EC94E00E94AB2543E552E061E03A
:1011800088EC94E00E94AB254BE452E062E088ECEE
:1011900094E00E94AB2543E452E063E088EC94E0E5
:1011A0000E94AB254BE352E064E088EC94E00E949F
:1011B000AB2543E352E065E088EC94E00E94AB2568
:1011C00060E086E30E94FE3A61E08CE20E94FE3A13
:1011D0006CE270E080EE94E00E94E82C8DE396E0F3
:1011E0000E94713201E021E04CE362E086E694E087
:1011F0000E94E2178AEE94E00E94371F0E947E2D23
:1012000086EB94E00E945B278FEF8093AA04809383
:10121000AB048093AC048093AD048093AE048093C0
:10122000AF0462E083E10E94FE3A41E050E067E8EB
:1012300078E084E0DF91CF910F910C94D23681E079
:101240008093E8040E94E7386093E3047093E40419
:101250008093E5049093E60408950F931F930E94F2
:10126000E7380091E3041091E4042091E504309103
:10127000E60408571C4E2F4F3F4F60177107820737
:10128000930748F08091E804882329F01092E8043D
:1012900081E08093E7041F910F9108950F931F93AE
:1012A000CF93DF9300D000D0CDB7DEB7CE0101964B
:1012B0001AD560EB74E0CE0101960E943B3E882374
:1012C00029F01091E90481E0182701C010E0CE0157
:1012D00001960E94D03B1111B2DF8091E704811189
:1012E00001C0BBDF8091E804882339F01092C70465
:1012F0001092C60462E872E00CC08091E90481118A
:1013000006C084E690E09093C7048093C60467E823
:1013100072E0CE0101960E943A3C21E030E040E0CC
:1013200050E060E070E0CE010196CDD4CE01019690
:101330000E94D03B0E94E7380091E3041091E4043E
:101340002091E5043091E60408571C4E2F4F3F4F83
:10135000601771078207930760F01092E7040E94FC
:10136000E7386093E3047093E4048093E50490937A
:10137000E60426960FB6F894DEBF0FBECDBFDF9110
:10138000CF911F910F910895BC0180EE94E00C94D1
:10139000232DCF93DF93CDB7DEB72C970FB6F894FC
:1013A000DEBF0FBECDBFF4DCCE01079604DD21E029
:1013B00030E047E350E060E070E0CE01079683D470
:1013C000CE0107960E94D03B2C960FB6F894DEBF54
:1013D0000FBECDBFDF91CF910895CF93DF93CDB7EF
:1013E000DEB72C970FB6F894DEBF0FBECDBFD0DCB2
:1013F000CE01079633DD21E030E047E350E06CE3B7
:1014000070E0CE0107965FD4CE0107960E94D03BD4
:101410002C960FB6F894DEBF0FBECDBFDF91CF91F3
:101420000895CF93DF9300D000D0CDB7DEB7CE01C3
:10143000019660DD21E030E047E350E060E070E0DD
:10144000CE01019640D4CE0101960E94D03B269653
:101450000FB6F894DEBF0FBECDBFDF91CF910895D8
:10146000CF93DF9300D000D0CDB7DEB7CE01019689
:10147000AEDD21E030E042E350E06CE370E0CE010D
:10148000019621D4CE0101960E94D03B26960FB63C
:10149000F894DEBF0FBECDBFDF91CF910895C1DFBD
:1014A000DFCF0F931F936091C6047091C7048CE047
:1014B0000E94E3390E94E7380091A6041091A70426
:1014C0002091A8043091A904005F184D2F4F3F4F81
:1014D000601771078207930780F09091240281E0E2
:1014E0008927809324020E94E7386093A6047093B2
:1014F000A7048093A8049093A904809124028823D0
:1015000021F047DF1F910F9168CF1F910F91C7CF37
:10151000CF93DF9300D000D0CDB7DEB78091E90440
:101520008823D1F06EE872E0CE0101960E943A3C29
:1015300021E030E04BE050E060E070E0CE01019649
:10154000C2D3CE0101960E94D03B8FEF90E09093E2
:10155000C7048093C60413C066EB72E0CE01019607
:101560000E943A3C21E030E04BE050E060E070E067
:10157000CE010196A8D3CE0101960E94D03B2696BB
:101580000FB6F894DEBF0FBECDBFDF91CF910895A7
:10159000AF92BF92CF92DF92EF92FF920F931F9381
:1015A000CF93DF93CDB7DEB72C970FB6F894DEBF9D
:1015B0000FBECDBF8091E904811114C00E94E738AD
:1015C00000916204109163042091640430916504D9
:1015D00008571C4E2F4F3F4F601771078207930724
:1015E00008F08DC00E94E73800915E0410915F04FE
:1015F00020916004309161040C591F4F2F4F3F4FD1
:10160000601771078207930748F18091200290913B
:1016100021022091220230912302821793072CF499
:101620000196909321028093200280912002909154
:101630002102281739072CF40197909321028093F7
:101640002002809120029091210220911E0230916F
:101650001F022817390714F097FF96DEE0901E024C
:10166000F0901F020F2C000C000B110B6091200258
:1016700070912102072E000C880B990B1F921F926C
:101680001F9223E62F93A12CB12C650120E030E0BE
:10169000A9010E94903BAB01BC012AE0CE01079654
:1016A0000E94EE3CBE01695F7F4FCE0101960E9411
:1016B000A63C21E030E046E150E060E070E0CE0181
:1016C000019601D3CE0101960E94D03BCE01079630
:1016D0000E94D03B0F900F900F900F902C960FB65A
:1016E000F894DEBF0FBECDBFDF91CF911F910F9158
:1016F000FF90EF90DF90CF90BF90AF900895C09093
:101700001E02D0901F020D2C000CEE08FF0887E38C
:101710000E94BE39BC01990F880B990BFF92EF9282
:10172000DF92CF92A12CB12C6501E12C14E0F12EB7
:1017300000E010E020E030E0A9010E94903B7093AF
:101740002302609322020E94E73860936204709340
:10175000630480936404909365040F900F900F903E
:101760000F9040CF0F931F93CF93DF9300D000D003
:10177000CDB7DEB7D3D08823B9F165E972E0CE01E9
:1017800001960E943A3C21E030E041E250E060E006
:1017900070E0CE01019697D2CE0101960E94D03B17
:1017A0000E94E738209110053091110528533F4FD2
:1017B0008901330F220B330B6017710782079307E0
:1017C00030F10E94E738709311056093100564EBC7
:1017D00070E08BE00E94E33964EB70E08AE00E94E5
:1017E000E33964EB70E01FC069EA72E0CE01019654
:1017F0000E943A3C21E030E041E250E060E070E0DD
:10180000CE01019660D2CE0101960E94D03B60E0ED
:1018100070E08BE00E94E33960E070E08AE00E94B3
:10182000E33960E070E089E00E94E33926960FB664
:10183000F894DEBF0FBECDBFDF91CF911F910F9106
:10184000089586E694E00E94C41728DD2ADE60DE53
:101850009FDEC5D187DF86E694E00C94491B8F920A
:101860009F92AF92BF92CF92DF92EF92FF920F932F
:101870001F93AA24AA94BA2C6501EE24EA94FE2CA4
:10188000870126E04BE06AE28AEE94E00E94001FA6
:1018900080EE94E00E94202C27E2C22E39E2E32E53
:1018A0000BE22DE24FE261E388EC94E00E948C258C
:1018B00045E06EE286EB94E00E943C266DEB72E020
:1018C00080EB94E00E943A3C40EA842E46E8942E55
:1018D000AA24A394B12C50E8C52E5AE1D52E56E087
:1018E000E52EF12C04E02DE336E040E460E886E6E6
:1018F00094E00E9421161F910F91FF90EF90DF90CE
:10190000CF90BF90AF909F908F90089586E694E01F
:101910000E946B1680EB94E00C94D03B80911205F2
:1019200008950F931F93CF93DF9300D000D0CDB7CE
:10193000DEB78C010197E1F46BEB72E0CE0101960A
:101940000E943A3C4FE050E060E070E0CE0101962A
:10195000ABDBCE0101960E94D03B66EC72E0CE017B
:1019600001960E943A3C4FE050E061E070E01BC0FD
:1019700066EC72E0CE0101960E943A3C4FE050E0E6
:10198000B801CE01019690DBCE0101960E94D03BBA
:101990006BEB72E0CE0101960E943A3CB8016F5F9A
:1019A0007F4F4FE050E0CE0101967EDBCE010196E5
:1019B0000E94D03B8ADB8A3219F481E080931305C0
:1019C00026960FB6F894DEBF0FBECDBFDF91CF9144
:1019D0001F910F910895CF93DF9300D000D0CDB722
:1019E000DEB78091140590911505009729F566E101
:1019F00075E0CE0101960E94A63C40E050E060E018
:101A000070E0CE01019650DBCE0101960E94D03BE2
:101A10006CE175E0CE0101960E94A63C40E050E0EA
:101A200061E070E0CE0101963FDBCE0101960E949D
:101A3000D03B80E090E054C081309105A1F466E194
:101A400075E0CE0101960E94A63C40E050E060E0C7
:101A500070E0CE01019628DBCE0101960E94D03BBA
:101A60006CE175E02CC082309105A1F46CE175E069
:101A7000CE0101960E94A63C40E050E060E070E09C
:101A8000CE01019611DBCE0101960E94D03B62E2AD
:101A900075E015C0039729F562E275E0CE01019665
:101AA0000E94A63C40E050E060E070E0CE0101966C
:101AB000FBDACE0101960E94D03B68E275E0CE01D0
:101AC00001960E94A63C40E050E061E070E0CE014B
:101AD0000196EADACE0101960E94D03B81E090E0C7
:101AE00020DF26960FB6F894DEBF0FBECDBFDF9184
:101AF000CF910895CF93DF9300D000D0CDB7DEB75C
:101B0000809114059091150581309105C1F11CF467
:101B1000892B39F056C08230910589F1039779F10C
:101B200050C068EC72E0CE0101960E943A3C40E061
:101B300050E060E070E0CE010196B6DACE01019689
:101B40000E94D03B65ED72E0CE0101960E943A3CC6
:101B500040E050E061E070E0CE010196A5DACE01F0
:101B600001960E94D03BB1DA8A3259F59091120564
:101B700081E08927809312051092130522C062EE3E
:101B800072E0CE0101960E943A3C40E050E060E0F5
:101B900070E0CE01019688DACE0101960E94D03B1A
:101BA00062EE72E0CE0101960E943A3C40E050E0C5
:101BB00061E070E0CE01019677DACE0101960E94D5
:101BC000D03B83DA833211F41092130526960FB6B8
:101BD000F894DEBF0FBECDBFDF91CF910895AF92D5
:101BE000BF92CF92DF92EF92FF920F931F93C0901C
:101BF0006502D09066020D2C000CEE08FF0886E30B
:101C00000E94BE39BC01990F880B990BFF92EF928D
:101C1000DF92CF92A12CB12C6501E12C14E0F12EC2
:101C200000E010E020E030E0A9010E94903B7093BA
:101C30001505609314050F900F900F900F908091F1
:101C40001305882349F01F910F91FF90EF90DF90CB
:101C5000CF90BF90AF904ECF8FEF9FEF90936402E5
:101C6000809363021F910F91FF90EF90DF90CF90D0
:101C7000BF90AF90B0CE6AEE72E086E195E00E9430
:101C80003A3C67EF72E08CE195E00E943A3C64E0F8
:101C900073E082E295E00E943A3C61E173E088E201
:101CA00095E00C943A3C88E295E00E94D03B82E2B9
:101CB00095E00E94D03B8CE195E00E94D03B86E10C
:101CC00095E00C94D03BE6E6F4E021E030E0338B85
:101CD000228B318B208B7587648757874687BC01A1
:101CE000CF010C94C336EF92FF921F93CF93DF93F3
:101CF000CDB7DEB72C970FB6F894DEBF0FBECDBFC1
:101D00007C0186EB94E00E947B2A882399F186EB84
:101D100094E00E94D725882369F16CEB72E0CE0134
:101D200007960E943A3C10E08091B8041817B8F466
:101D3000E12FF0E0EA54FB4F40E16381CE010196D0
:101D40000E94C33CBE016F5F7F4FCE0107960E9489
:101D5000733DCE0101960E94D03B1F5FE5CFBE01CF
:101D6000695F7F4FC7010E94893CCE0107960E94A0
:101D7000D03B05C06CEB72E0C7010E943A3CC70142
:101D80002C960FB6F894DEBF0FBECDBFDF91CF917A
:101D90001F91FF90EF9008952091C505222399F09F
:101DA0004FB7F8942091C505213059F42DB32093F5
:101DB000C3053DB32091C405209523232DBB4FBF00
:101DC00002C04093C3058CBD9DBD08958091C5059B
:101DD000882361F09FB7F8942091C5058091C305D1
:101DE000213019F48DBB9FBF08958FBF089580E007
:101DF00090E0089508952F923F924F925F926F92D4
:101E00007F928F929F92AF92BF92CF92DF92EF928A
:101E1000FF920F931F93CF93DF9300D000D0CDB7E5
:101E2000DEB72C017E836D836A015901C801FC82F3
:101E3000EB824801841A950A97FE03C0919481941D
:101E4000910835012D813E81621A730A77FE03C025
:101E5000719461947108681479045CF43A2D2B2D07
:101E60005C01832F922F3D812E81DE82CD82C32E95
:101E7000D22EAD81BE81AA16BB065CF43C2D2D2D61
:101E80006C01832F922F3D812E81BE82AD82A32EC5
:101E9000B22E85012D813E81021B130B1C012C18D3
:101EA0003D0837FE03C0319421943108780117FFB3
:101EB00003C03FEFE31AF30AF594E794C816D90676
:101EC0002CF08FEF9FEF9A83898304C0A1E0B0E0EC
:101ED000BA83A9832D813E81A216B30624F1D201D3
:101EE000ED91FC910484F585E02D2B813C816814F3
:101EF000790424F44D815E81B60103C0A6016D8191
:101F00007E81C2011995E218F308F7FE06C0298107
:101F10003A81C20ED31EE00EF11E8D819E81019684
:101F20009E838D83D7CF26960FB6F894DEBF0FBE63
:101F3000CDBFDF91CF911F910F91FF90EF90DF9078
:101F4000CF90BF90AF909F908F907F906F905F9059
:101F50004F903F902F900895DC01ED91FC9100840B
:101F6000F185E02D19940F931F93DC01ED91FC9105
:101F7000048CF58DE02D19951F910F9108950F9305
:101F80001F93DC01ED91FC91068CF78DE02D1995E6
:101F90001F910F910895EF92FF920F931F93DC0111
:101FA000ED91FC9100A0F1A1E02D19951F910F91E9
:101FB000FF90EF90089508958F929F92AF92BF92F5
:101FC000CF92DF92EF92FF920F931F93CF93DF9305
:101FD000EC015B014A0169017801E881F981028421
:101FE000F385E02D1995C80CD91C86010150110903
:101FF000E881F9810488F589E02D9501A401B501F6
:10200000CE011995E881F9810688F789E02DCE0186
:10201000DF91CF911F910F91FF90EF90DF90CF90C4
:10202000BF90AF909F908F9019948F929F92AF9294
:10203000BF92CF92DF92EF92FF920F931F93CF93B5
:10204000DF93EC015B014A016901E881F9810284B7
:10205000F385E02D199595012C0D3D1D2150310979
:10206000E881F9810488F589E02D78018401A401D3
:10207000B501CE011995E881F9810688F789E02D2F
:10208000CE01DF91CF911F910F91FF90EF90DF90E4
:10209000CF90BF90AF909F908F9019944F925F9286
:1020A0006F927F928F929F92AF92BF92CF92DF9268
:1020B000EF92FF920F931F93CF93DF936C012B014D
:1020C0005A0139014801DC01ED91FC910284F3854C
:1020D000E02D1995E201640C751CD601ED91FC917F
:1020E000C615D7055CF40088F189E02D87019401BD
:1020F000A501BE01C60119952196EFCF0688F78983
:10210000E02DC601DF91CF911F910F91FF90EF90CD
:10211000DF90CF90BF90AF909F908F907F906F9007
:102120005F904F901994EF92FF920F931F93DC01F1
:102130001A960D911C911B9718962D913C91199709
:10214000ED91FC9100A0F1A1E02D7B0140E050E079
:1021500060E070E019951F910F91FF90EF90089546
:102160008F929F92AF92BF92CF92DF92EF92FF92A7
:102170000F931F93CF93DF934C016B015A01E90139
:10218000DC01ED91FC916217730781F404171507C8
:1021900024F48B2D5801042F182F0A191B099801BC
:1021A0002F5F3F4F048CF58DE02D12C04017510773
:1021B00009F52617370724F48D2D6901C62FD82F6E
:1021C0009E012C193D092F5F3F4F068CF78DE02DA6
:1021D0008701A501B601C4011995DF91CF911F9127
:1021E0000F91FF90EF90DF90CF90BF90AF909F90B6
:1021F0008F9008950284F385E02D1995D401ED9117
:10220000FC910488F589E02D9E01A501B601C40169
:102210001995D401ED91FC910688F789E02DC40150
:10222000DF91CF911F910F91FF90EF90DF90CF90B2
:10223000BF90AF909F908F9019946F927F928F92E2
:102240009F92AF92BF92CF92DF92EF92FF920F9345
:102250001F93CF93DF93EC014B015A0169013801C1
:10226000E881F9810284F385E02D1995E881F981EF
:102270000288F389E02D87019601A501B401CE0102
:102280001995A501460D571D41505109E881F98165
:102290000288F389E02D9601B401CE011995E881F9
:1022A000F9810088F189E02D9301A501B401CE01E7
:1022B0001995C80CD91CB60161507109E881F981E2
:1022C0000088F189E02D9301A501CE011995E881DF
:1022D000F9810688F789E02DCE01DF91CF911F911A
:1022E0000F91FF90EF90DF90CF90BF90AF909F90B5
:1022F0008F907F906F9019940895FC016370668BA6
:102300008481958126813781613039F0633029F0ED
:102310009187808733872287089531872087938725
:1023200082870895FC011382128282E293E09183F6
:10233000808375836483578346837187608753875F
:102340004287168A158614861786168681E0858B45
:10235000848B2FEF3FEF338B228B318B208B878B3E
:10236000108E128E118E08953F924F925F926F924F
:102370007F928F929F92AF92BF92CF92DF92EF9215
:10238000FF920F931F93CF93DF93CDB7DEB72A97BA
:102390000FB6F894DEBF0FBECDBF5C017E836D83A8
:1023A00058874F8329013701DC01ED91FC910284AC
:1023B000F385E02D1995C801079697FD07969C01B6
:1023C00093E0359527959A95E1F73A832983812CF7
:1023D000912CE12CF12C312C8F8198858E0D9F1D35
:1023E0009C838B83E614F7040CF03DC01A86198693
:1023F000A985BA85A017B10774F5CD018770992713
:10240000892B11F0330C0EC0E985FA85F7FD37965C
:1024100083E0F595E7958A95E1F7E80DF91DE40D60
:10242000F51D349037FE11C0D501ED91FC91048467
:10243000F585E02D96014B815C816D817E818985DA
:102440009A85680F791FC5011995A985BA851196D6
:10245000BA87A987CDCFBFEFEB1AFB0A29813A8152
:10246000820E931EB9CFD501ED91FC910688F789B4
:10247000E02DC5012A960FB6F894DEBF0FBECDBF82
:10248000DF91CF911F910F91FF90EF90DF90CF9050
:10249000BF90AF909F908F907F906F905F904F9084
:1024A0003F9019942F923F924F925F926F927F923A
:1024B0008F929F92AF92BF92CF92DF92EF92FF9254
:1024C0000F931F93CF93DF93CDB7DEB76B970FB604
:1024D000F894DEBF0FBECDBF9B8F8A8F2B015A832E
:1024E0004983D22E198708874701AB82DC015996B0
:1024F0002D913C915A972115310509F000C118968C
:102500008D919C911997681779070CF0E7C11A967D
:102510008D919C911B97481759070CF0DFC12C2C0B
:10252000312CFB0126E0C29EE00DF11D1124FD8738
:10253000EC871E161F060CF0D1C14A2D50E05B87B8
:102540004A8783E0440F551F8A95E1F75F874E87DE
:1025500089819A81840F951F181619060CF0BEC147
:1025600058968C91811104C06FEA6D1508F4D394CC
:10257000AA8DBB8DED91FC9111970284F385E02D1E
:10258000CD011995B5E0DB9EC0011124EC2DF0E0E2
:10259000F98BE88B92012B5F3F4F3B8B2A8B3201EB
:1025A0005D824C82AC01441955095D8B4C8B7B815B
:1025B000672F70E07F8B6E8B89819A810896998F47
:1025C000888FEC89FD89E60DF71DEC5CFD4FD490FA
:1025D000A981BA81BF83AE835D01D0FE16C0AA8DEA
:1025E000BB8DED91FC91B1E0CB1209C02B81213064
:1025F00031F40484F585E02D2885398519C00684D9
:10260000F785E02DE884F9841DC048855985481573
:10261000590511F1AA8DBB8DED91FC91B1E0CB1262
:102620000DC02B81213051F40484F585E02D9401F7
:10263000A501B3018A8D9B8D19950EC00684F7857F
:10264000E02D74010A851B8591014E815F816C81AB
:102650007D818A8D9B8D1995D6944E815F816E897F
:102660007F89460F571F5F834E837FEFA71AB70AF4
:10267000888D998DA816B90609F0AFCFAC81BD81C0
:10268000E889F989AE0FBF1FBD83AC83FFEF6F1AD6
:102690007F0A2A893B896216730609F092CF488522
:1026A00059854815590509F4F7C0AA8DBB8DED91E0
:1026B000FC91B1E0CB1212C02B81213079F4B20130
:1026C0006B5F7F4F0088F189E02D840128E030E0C6
:1026D00049815A818A8D9B8D1995DEC06C857D85D7
:1026E000621973090684F785E02D74010E851F8534
:1026F000910149815A818A8D9B8D1995CDC0F9012F
:102700003496E491DE1AF901329685919491B7E0FE
:10271000DB9E800D911D1124F90125913491398B97
:10272000288BFC0125903490FC01329674903196F0
:10273000A490329694903196B49031E03C1518F004
:102740004B81423068F0692D092C000C770B7D839A
:102750006C838B2D0B2C000C990B9F838E8304C0F4
:102760001F821E821D821C82AA8DBB8DED91FC9161
:1027700011970284F385E02DCD011995612CD12CA0
:10278000812CFB81EF2FF0E0FB87EA872C2D30E0D6
:102790003D872C8749815A814B0D511DB7FC5A95B5
:1027A0005D8B4C8BB201690D711D97FC7A957F8B07
:1027B0006E8B8A1408F070C0282D30E04E815F8146
:1027C000420F531FAA85BB85A49FC001A59F900DF2
:1027D000B49F900D1124E981FA81E80FF91FFF875A
:1027E000EE87862D912C4C895D89420F531F5B8BA0
:1027F0004A8B971408F04DC0BB24B394B80E877071
:1028000041F4C1010196E889F989E20DF31DD490E4
:102810001C01D7FE3AC051E0C51216C06B81613071
:1028200099F4AA8DBB8DED91FC9111970484F585E7
:10283000E02D288539854A895B896E897F89690DF4
:10284000711DCD01199521C08C819D81890D911D2E
:10285000EC85FD858E9FB0018F9F700D9E9F700D42
:102860001124640D751DAA8DBB8DED91FC911197FE
:102870000684F785E02DE884F9840A851B852C857C
:102880003D854E855F85CD011995DD0C93948B2D8B
:10289000B0CF670C83948DCFAA8DBB8DED91FC9149
:1028A00011970688F789E02DCD016B960FB6F89445
:1028B000DEBF0FBECDBFDF91CF911F910F91FF9073
:1028C000EF90DF90CF90BF90AF909F908F907F90D0
:1028D0006F905F904F903F902F9019946B960FB62A
:1028E000F894DEBF0FBECDBFDF91CF911F910F9146
:1028F000FF90EF90DF90CF90BF90AF909F908F9020
:102900007F906F905F904F903F902F9008958F929F
:102910009F92AF92CF92EF92FF920F931F93CF931C
:10292000DF93EC01262F898D9A8D009709F041C025
:102930006A3059F41D861C862D898E859F8538E066
:10294000239F800D911D112442C06D3009F4A8C051
:102950008F898823C9F03C898C859D8546E0349F0A
:10296000800D911D1124488559854817590764F435
:102970001D861C863D898E859F8548E0349F800D8D
:10298000911D11249F878E87EA88FB880889198901
:102990004E855F856C857D85AD88CC88CE0182DDD6
:1029A0002C898C859D8536E0239F800D911D1124F7
:1029B0003EC06A3079F41D861C862D89FC0138964C
:1029C000E4918E859F852E9F800D911D11249F87F8
:1029D0008E8766C06D3009F463C0FC013496349173
:1029E000631708F45DC03296E491E61708F458C006
:1029F000462F431B342FFC0132968590949047E07C
:102A0000349F800C911C1124F4013296349131963C
:102A1000E491332311F0E1110DC0F4013496E491F7
:102A20002C898C859D85E29F800D911D11249D87A9
:102A30008C8736C0F401359644915F89552319F18E
:102A40005C89E32FF0E0E40FF11D47FDFA955E9FEE
:102A5000B0015F9F700D11244C855D85460F571F97
:102A6000688579856417750774F41D861C863D8911
:102A7000FC013896E4918E859F853E9F800D911DC7
:102A800011249F878E87EA88FB88088919894E85DB
:102A90005F856C857D85AD88CC88CE0103DDBDCF9B
:102AA00081E090E0DF91CF911F910F91FF90EF9027
:102AB000CF90AF909F908F900895FC0177FDB9C0A3
:102AC00080859185681779070CF0B3C057FDB1C0B8
:102AD00082859385481759070CF0089586898230BE
:102AE00079F484819581DC01A61BB70BBD0161508F
:102AF000710986819781DC01A41BB50BAD010EC065
:102B0000833009F084C064277527CA018627972778
:102B10006827792746815781481B590B4150510935
:102B20002130310531F048F12230310509F44AC035
:102B30000895CA0157FD07969C01A3E03595279596
:102B4000AA95E1F7A481B5812A9FC0012B9F900D22
:102B50003A9F900D1124680F791F078CF0A1E02D8A
:102B6000E60FF71F4770552781E090E001C0880FFE
:102B70004A95EAF79081892B48C0CA0157FD07960C
:102B80009C0193E0359527959A95E1F7A481B5814D
:102B90002A9FC0012B9F900D3A9F900D1124680F22
:102BA000791F078CF0A1E02DE60FF71F477055271E
:102BB00081E090E001C0880F4A95EAF78095908106
:102BC000892323C0CA0157FD07969C0183E03595F0
:102BD00027958A95E1F7A481B5812A9FC0012B9F93
:102BE000900D3A9F900D1124680F791F078CF0A16A
:102BF000E02DE60FF71F4770552781E090E001C0F8
:102C0000880F4A95EAF7908189278083089581305B
:102C100009F086CF6427752746275727642775272D
:102C200084819581DC01A61BB70BBD016150710940
:102C300077CF08958EBD00000DB407FEFDCF8EB591
:102C400008954F925F926F927F928F929F92AF9270
:102C5000BF92CF92DF92EF92FF920F93CF93DF93C9
:102C6000CDB7DEB73C01290150E070E05BDB8EE4BC
:102C700093E0F30191838083148E138E41145104E9
:102C800011F0C20102C08DE396E0F301968F858FAB
:102C900010A2178E8FEF84A385A386A387A300A716
:102CA000C5AAD6AAE7AAF0AE81AE92AEA3AEB4AEE4
:102CB00080E586AF17AEDF91CF910F91FF90EF9037
:102CC000DF90CF90BF90AF909F908F907F906F904C
:102CD0005F904F9008952EE433E0FC013183208310
:102CE000878D90A1009711F00C947C3F08951F935D
:102CF000CF93DF93FC01858D968D009719F1162FE8
:102D0000EF0161A1062E000C770B0E948D328D8D94
:102D10009E8DDC01ED91FC910190F081E02D60E051
:102D200019958D8D9E8DDC01ED91FC910190F081C6
:102D3000E02D612F19958D8D9E8DDF91CF911F9183
:102D40000C940233A5A5B6A59C9183A980958923EF
:102D50008C93838D948D892B29F0862FDF91CF91D1
:102D60001F9168CF28E030E080E8A1A5B2A591A925
:102D7000462F482319F04C91942B03C04C91909509
:102D800094239C93A3A5B4A54C9192A9942B9C93B6
:102D9000A3A5B4A54C9192A9909594239C93869554
:102DA0002150310911F7DF91CF911F9108951F93A1
:102DB000CF93DF93EC01162F8D8D9E8D009739F008
:102DC0004DA95EA96FA978AD0E9480320FC08B8D8E
:102DD0009C8D892B21F08EAD9FAD0E94CC0EEFA56E
:102DE000F8A990818CA9809589238083111102C054
:102DF00066EA01C067EACE017ADF8D8D9E8D00976D
:102E000049F049AD5AAD6BAD7CADDF91CF911F91CB
:102E10000C948032EFA5F8A990818CA9892B80832E
:102E20008B8D9C8D892B29F0DF91CF911F910C9474
:102E3000E60EDF91CF911F910895BF92CF92DF925E
:102E4000EF92FF920F931F93CF93DF93EC01B62E77
:102E5000072F142F8D8D9E8D009709F452C069A104
:102E6000062E000C770B0E948D328D8D9E8DDC011D
:102E7000ED91FC910190F081E02D60E01995CB2C53
:102E8000D02EEE24E394F12C8D8D9E8D112371F1C3
:102E9000B0E2EB16F104B8F00E94023369A1062EED
:102EA000000C770B8D8D9E8D0E948D328D8D9E8DA9
:102EB000DC01ED91FC910190F081E02D60E019952D
:102EC000EE24E394F12C8D8D9E8DF6016491DC014E
:102ED000ED91FC910190F081E02D1995BFEFEB1A77
:102EE000FB0A1150F60131966F01CECFDF91CF91E1
:102EF0001F910F91FF90EF90DF90CF90BF900C94B7
:102F00000233EDA5FEA590818BA98095892380834E
:102F1000E62EF72E112371F1F70184912B8D3C8D54
:102F2000232B31F087DE1150C70101967C01F2CFCF
:102F300028E030E040E8E9A5FAA599A9582F5423E4
:102F400019F05081952B03C0508190959523908363
:102F5000EBA5FCA550819AA9952B9083EBA5FCA528
:102F600050819AA9909595239083469521503109D7
:102F700011F7D9CFDF91CF911F910F91FF90EF9073
:102F8000DF90CF90BF900895FC01868197819C01CE
:102F9000295F3F4F37FF02C0295F3F4F83E03595E0
:102FA00027958A95E1F784819581289FA001299F23
:102FB000500D389F500D112460E070E0878D90A176
:102FC0000C94F2408F929F92AF92BF92CF92DF9279
:102FD000EF92FF920F931F93CF93DF93EC01862E16
:102FE000B42EA22E902E8F8D98A1892BE9F42E81DC
:102FF0003F81C901079697FD079623E09595879530
:103000002A95E1F72C813D81AC01429FC001439F8D
:10301000900D529F900D11240E94E43E98A38F8F33
:10302000892B11F480E084C1CE01AEDF8E819F81B7
:103030006C817D8181329105E4F0AC0140545109ED
:1030400057FF02C04F5F5F4F559547956255710915
:1030500077FF02C06F5F7F4F75956795CC24C3944F
:10306000D12C80E4E82EF12C02E510E02BE339E0CE
:103070001BC0AC014052510957FF02C04F5F5F4F68
:10308000559547956357710977FF02C06F5F7F4F72
:1030900075956795CC24C394D12CA0E2EA2EF12C2F
:1030A00003E710E02BE537E0CE015ED98AA28D8DD3
:1030B0009E8D009799F0B11007C02E813F8120327C
:1030C000310521F42CE303C02B2D01C02DE329A3EE
:1030D000992009F42AC10E94713279C061E08EA161
:1030E0000E94FE3A61E08FA10E94FE3A8EA1082E56
:1030F000000C990BFC01E957F34FE491F0E0EE0F5F
:10310000FF1FE951F34F259134913EA72DA7FC01F4
:10311000EF5BF34FE491EBAB8FA1082E000C990B02
:10312000FC01E957F34FE491F0E0EE0FFF1FE95186
:10313000F34FA591B491B8ABAFA7FC01EF5BF34F90
:10314000E491ECAB8C91E82BEC938B8D9C8D892BCF
:1031500031F0992009F43BC00E947E2D38C061E017
:103160008CA10E94FE3A61E08DA10E94FE3A8CA1E2
:10317000082E000C990BFC01E957F34FE491F0E0A5
:10318000EE0FFF1FE951F34F259134913AA729A77C
:10319000FC01EF5BF34FE491E9AB8DA1082E000C2D
:1031A000990BFC01E957F34FE491F0E0EE0FFF1F9C
:1031B000E951F34FA591B491BCA7ABA7FC01EF5B1C
:1031C000F34FE491EAAB8C91E095E823EC93AA20CD
:1031D000F1F088A587FD1BC061E00E94FE3A61E026
:1031E00088A50E943A3B61E070E080E090E00E9498
:1031F000183960E088A50E943A3B6AE070E080E000
:1032000090E00E94183961E088A50E943A3B8D8DBC
:103210009E8D009739F04DA95EA96FA978AD0E94E7
:1032200080320FC08B8D9C8D892B21F08EAD9FAD90
:103230000E94CC0EEFA5F8A990818CA980958923D6
:10324000808344E067E577E0CE01F7DD6E81615071
:10325000CE014DDD44E063E577E0CE01EEDD8AA1ED
:10326000813011F460E101C064E1CE0140DD44E051
:103270006FE477E0CE01E1DD8FE88DAF8C819D8139
:103280008038910571F48E819F8180349105B9F465
:103290008AA1813011F48FE901C08FEC8DAF12E16A
:1032A0000FC08036910559F48E819F81409739F483
:1032B0008AA1813011F480E101C08FEA8DAF12E064
:1032C0006AEDCE0114DD612FCE0111DD61E8CE0182
:1032D0000EDD6DADCE010BDD69EDCE0108DD8AA1FD
:1032E000813011F462E201C061EFCE0100DD46E001
:1032F00069E477E0CE01A1DD8D8D9E8D009739F0D8
:1033000049AD5AAD6BAD7CAD0E9480320CC0EFA5CB
:10331000F8A990818CA9892B80838B8D9C8D892B1A
:1033200011F00E94E60E81E003C0A11052CF73CFCE
:10333000DF91CF911F910F91FF90EF90DF90CF9091
:10334000BF90AF909F908F9008950F931F93CF934E
:10335000DF93DC0157FD64C016968D919C91179701
:10336000481759070CF05CC077FF04C0260F371FC1
:1033700060E070E01496CD91DC911597CB01820F3F
:10338000931FC817D9071CF49E01261B370B121672
:1033900013060CF045C0FA0157FD3796CF01E3E064
:1033A00095958795EA95E1F78C9FF0018D9FF00D3B
:1033B0009C9FF00D11246E0F7F1F5F96ED91FC9185
:1033C0009097E60FF71F4770552781E090E001C006
:1033D000880F4A95EAF7482F0130110539F078F047
:1033E00002301105E9F42E0F3F1F13C02E0F3F1FAF
:1033F000E217F307A9F08081842B8193F9CF8095A0
:103400002E0F3F1FE217F30759F0908198239193F5
:10341000F9CFE217F30721F0808184278193F9CF58
:10342000DF91CF911F910F910895EF92FF920F932B
:103430001F93CF93DF93EC0177FDA5C0EC80FD8057
:103440006E157F050CF09FC057FF04C0240F351F79
:1034500040E050E08E819F81FA01E20FF31F8E174A
:103460009F071CF49C01241B350B121613060CF04D
:103470008AC0922F842F8695869586958E9DD00141
:103480008F9DB00D11246A0F7B1FAF8DB8A1A60FC1
:10349000B71F4770B1F188E0841B482F682F70E098
:1034A000FB01EF5BF84FE491281798F4621B710958
:1034B0002FEF30E002C0359527956A95E2F7E223B9
:1034C0000130110549F078F00230110509F05BC0B8
:1034D0000EC00130110519F48C91E82B0AC001309F
:1034E000110508F049C0E0958C91E82302C08C9149
:1034F000E827EC93941708F446C02C813D81A20F75
:10350000B31FE92FE41BE830F8F00230110561F435
:103510008E2F9C9190959C932C813D81A20FB31F7F
:1035200088508830B0F70FC081E00115110509F40B
:1035300080E081959E2F8C932C813D81A20FB31F3B
:1035400098509830C0F7E770EE23E9F0F0E0E75CC0
:10355000F84FE4910130110539F048F002301105BF
:1035600091F48C91E82706C08C91E82B03C0E0957C
:103570008C91E823EC9307C00230110509F4B7CF12
:10358000AE0DBF1DBECFDF91CF911F910F91FF9068
:10359000EF9008950F931F93DC015696EC91569788
:1035A000E23061F0E33009F1E13079F51496ED9104
:1035B000FC911597E41BF50B319723C0DC011496A1
:1035C000ED91FC911597DF01A61BB70BBD01DC0146
:1035D0001696ED91FC911797DF01A41BB50BAD0179
:1035E00041505109621B730B10C0FA01DC011696A1
:1035F0004D915C911797DA01A61BB70BBD01621BB9
:10360000730BAB01BF0111DF01C09FDE1F910F9152
:1036100008950F931F93DC015696EC915697E23074
:1036200069F0E33011F1E13081F51496ED91FC91F0
:103630001597E41BF50BE21BF30B23C0DC0114967A
:10364000ED91FC911597DF01A61BB70BBD016150F1
:103650007109DC011696ED91FC911797DF01A41B0F
:10366000B50BAD01421B530B10C0FA01DC011696DD
:103670004D915C911797DA01A61BB70BBD01615004
:103680007109AB01BF0161DE01C0CFDE1F910F9157
:103690000895CF92DF92EF92FF920F931F93CF93F3
:1036A000DF93EC018D8D9E8D009739F04DA95EA9B9
:1036B0006FA978AD0E9480320FC08B8D9C8D892BB5
:1036C00021F08EAD9FAD0E94CC0EEFA5F8A99081A0
:1036D0008CA980958923808345E064E377E0CE015F
:1036E000ACDB6C816150CE0102DB2E813F81C901D0
:1036F000079697FD079623E0959587952A95E1F71C
:103700002C813D81829F7001839FF00C929FF00C71
:1037100011240F8D18A18D8D9E8DE00EF11E009746
:1037200009F443C069A1062E000C770B0E948D326C
:103730008D8D9E8DDC01ED91FC910190F081E02D4D
:1037400060E41995680101E010E08D8D9E8DEC1408
:10375000FD0441F100321105B0F00E94023369A16D
:10376000062E000C770B8D8D9E8D0E948D328D8DD7
:103770009E8DDC01ED91FC910190F081E02D60E4E3
:10378000199501E010E08D8D9E8DF60161916F011C
:10379000DC01ED91FC910190F081E02D19950F5F16
:1037A0001F4FD3CF0E94023334C0EDA5FEA59081F8
:1037B0008BA9892B80830E151F0559F1F801819182
:1037C0008F012B8D3C8D232B11F034DAF4CF28E0C0
:1037D00030E040E8E9A5FAA599A9582F542319F03B
:1037E0005081952B03C05081909595239083EBA534
:1037F000FCA550819AA9952B9083EBA5FCA550813F
:103800009AA990959523908346952150310911F7F7
:10381000D2CF8D8D9E8D009771F049AD5AAD6BADB5
:103820007CADDF91CF911F910F91FF90EF90DF90D2
:10383000CF900C948032EFA5F8A990818CA9892BA8
:1038400080838B8D9C8D892B51F0DF91CF911F91BF
:103850000F91FF90EF90DF90CF900C94E60EDF91E8
:10386000CF911F910F91FF90EF90DF90CF9008952F
:10387000DC0115966C93159716964C93169770E08D
:10388000FB01EF5BF34FE4911796EC931797FB0165
:10389000E957F34F649118966C93189740E85EE3EC
:1038A00060E070E01D964D935D936D937C9350970F
:1038B00008951F93CF93DF93EC01162F62E08D8163
:1038C0000E94FE3A0E94E738DC01CB01805D974000
:1038D000A109B10989879A87AB87BC871A8BDF91C9
:1038E000CF911F910895CF92DF92EF92FF921F9395
:1038F000CF93DF93EC011F81662311F0912F01C05C
:1039000090E0288530E0220F331F2353334FA0E08F
:10391000B0E0F90145915491FA0180818123AD0114
:1039200060E070E098130FC01196CD84DE84EF84C0
:10393000F8884C155D056E057F0558F33FEF2FEFB6
:103940008FEF9FEF03C03A2F252FCB01632F722FEC
:10395000DF91CF911F91FF90EF90DF90CF9008956E
:103960008F929F92AF92BF92CF92DF92EF92FF928F
:103970000F931F93CF93DF93CDB7DEB7C054D140E1
:103980000FB6F894DEBF0FBECDBF8C01F62E0E949D
:10399000E738F11016C0F801C184D284E384F484BE
:1039A0009B01AC012C193D094E095F0969017A019F
:1039B00030EDC31637E0D306E104F10410F4818939
:1039C000B6C0F80161877287838794871482138257
:1039D00012821182108262E085810E94FE3A61E0CB
:1039E00070E080E090E00E94183961E0F801858184
:1039F0000E94FE3A60E0F80185810E943A3BF8019E
:103A000086818551823028F48CE494E00E945139FB
:103A100006C064E170E080E090E00E94183962E046
:103A2000F80185810E94FE3AF801828990E00E94A7
:103A30005139F89460E0C80156DF6F3F7F4F8F4FD8
:103A40009F4F21F4F801118A789442C061E0C801C7
:103A50004ADF6F3F7F4F8F4F9F4FA1F39E012F5F34
:103A60003F4F79015E013FEBA31A3EEFB30A6701B6
:103A700060E0C80138DFF60160837183828393833D
:103A800061E0C80130DFF601648375838683978324
:103A9000F8E0CF0ED11CCA14DB0451F7789420E073
:103AA00030E0F70180809180A280B380448155810D
:103AB00066817781FFEF8F169F06AF06BF0631F054
:103AC0004F3F8FEF58076807780721F4F801118AF4
:103AD00080E02DC0F90183E0F595E7958A95E1F73F
:103AE000E00FF11F8081880F84169506A606B706A1
:103AF00008F4816080832F5F3F4FF8E0EF0EF11CE8
:103B00002832310571F6F801248130E0408181814D
:103B100090E0840F911D4281840F911D4381840F99
:103B2000911D99272817390789F681E0818BC05CA0
:103B3000DE4F0FB6F894DEBF0FBECDBFDF91CF9141
:103B40001F910F91FF90EF90DF90CF90BF90AF90BB
:103B50009F908F900895CF92DF92EF92FF920F93F4
:103B60001F93CF93DF938C01C62F642FF9DE882338
:103B700009F478C0F80186818C3009F445C018F446
:103B80008B30C9F06FC08551823008F06BC0F801EE
:103B9000D2816D2F6F7770E0762F66278381682B37
:103BA00080E090E00E946C332DEC3CEC4CEC5DE34B
:103BB0000E941E3446C0F801628170E080E090E00F
:103BC0000E946C336B017C01F801D381D7FF0AC0DE
:103BD0009B01AC0160E070E080E89FEB0E9407333E
:103BE0006B017C016D2F6F7070E080E090E00E94AF
:103BF0006E332DEC3CEC4CEC5DE30E941E34A701CF
:103C000096010E9408331FC0F801D28163816F7052
:103C100070E080E090E00E946E332DEC3CEC4CECC8
:103C20005DE30E941E346B017C016D2F70E080E02B
:103C300090E00E946C339B01AC01C701B6010E9469
:103C40000833D7FD9058CC2389F026E636E646EEB9
:103C50005FE30E941E3420E030E040E052E40E9426
:103C6000083304C060E070E080EC9FE7DF91CF9103
:103C70001F910F91FF90EF90DF90CF900895CF921A
:103C8000DF92EF92FF92CF93DF93EC0169DE8823FE
:103C900099F18E818B3080F18D3098F08551823092
:103CA00058F56881798176276727762780E090E04C
:103CB0000E946C332DEC3CEC4CEC5DE30E941E3416
:103CC0001FC0698170E080E090E00E946E332DECAF
:103CD0003CEC4CEC5DE30E941E346B017C0168817E
:103CE00070E080E090E00E946E339B01AC01C70160
:103CF000B6010E94083304C060E070E080EC9FE7EA
:103D0000DF91CF91FF90EF90DF90CF9008950895CD
:103D100008950F931F93CF93DF938C01EB0184E2FF
:103D2000FB0111928A95E9F784E290E0A0E0B0E00F
:103D300088839983AA83BB83F80185819681A781B3
:103D4000B0858C839D83AE83BF838DE090E0A0E03F
:103D5000B0E088879987AA87BB870E94E738688B7D
:103D6000798B8A8B9B8B40E060E0F80183819481A2
:103D7000F2DE6C8B7D8B8E8B9F8B81E0DF91CF9100
:103D80001F910F9108950F931F93CF93DF938C0191
:103D9000EB0184E2FB0111928A95E9F784E290E05D
:103DA000A0E0B0E088839983AA83BB83F801858172
:103DB0009681A781B0858C839D83AE83BF838CE081
:103DC00090E0A0E0B0E088879987AA87BB870E942F
:103DD000E738688B798B8A8B9B8B60E0F801838155
:103DE00094814DDF6C8B7D8B8E8B9F8B81E0DF917F
:103DF000CF911F910F9108950C9497360C9497369C
:103E00004F925F926F927F929F92AF92BF92CF92AA
:103E1000DF92EF92FF920F931F93CF93DF93EC010A
:103E2000942E26DD9B8A87E993E09D8B8C8BD88F1F
:103E3000CF8BE98EFA8E0B8F1C8F85EA93E09E8FD5
:103E40008D8FD9A3C8A3AAA2BBA2CCA2DDA2DF9169
:103E5000CF911F910F91FF90EF90DF90CF90BF9087
:103E6000AF909F907F906F905F904F90089567E321
:103E700020CDCF93DF93EB01FC0183898C3089F057
:103E800038F48B30C1F44BE050E066E773E017C0C4
:103E9000853161F0863179F44BE050E068E873E0F9
:103EA0000EC04BE050E06CE773E009C04BE050E01F
:103EB00062E873E004C04BE050E06EE873E0CE01CE
:103EC0000E9409411B86DF91CF910895FB01DC011F
:103ED00053968C918C3041F038F48B3029F480E487
:103EE00092E4AFE0B0E004C080E894E8AEE1B0E076
:103EF00084A395A3A6A3B7A308950F931F93CF936D
:103F0000DF938C01EB0188E2DB011D928A95E9F7D2
:103F1000F80183819481ADDF81E090E0A0E0B0E022
:103F20008C879D87AE87BF87F80185819681A781A1
:103F3000B085888B998BAA8BBB8B8DE090E0A0E03D
:103F4000B0E08C8B9D8BAE8BBF8BBE018381948147
:103F5000BDDFD8011396ED91FC91149783898C30C5
:103F6000F1F0A0F48B3009F048C080E090E0A8E4C4
:103F7000B2E4888F998FAA8FBB8F1C8E1D8E1E8EE8
:103F80001F8E80E090E0A0E0B0E432C08531E1F027
:103F9000863199F580E090E0AAEFB2E419C080E0A4
:103FA00090E0A0E7B2E4888F998FAA8FBB8F80E062
:103FB00090E0A0EAB1EC8C8F9D8FAE8FBF8F80E038
:103FC00090E0A0E0BFE314C080E090E0A0EAB2E49B
:103FD000888F998FAA8FBB8F80E090E0A0E2B2EC2F
:103FE0008C8F9D8FAE8FBF8F8DEC9CECACECBDE3C6
:103FF00088A399A3AAA3BBA30CC0188E198E1A8EEE
:104000001B8E1C8E1D8E1E8E1F8E18A219A21AA228
:104010001BA2DF91CF911F910F9108950F931F93D2
:10402000CF93DF938C01EB0188E2DB011D928A952F
:10403000E9F7F801838194811CDF81E090E0A0E042
:10404000B0E08C879D87AE87BF87F8018581968118
:10405000A781B085888B998BAA8BBB8B8CE090E075
:10406000A0E0B0E08C8B9D8BAE8BBF8BBE018381BB
:1040700094812CDFD8011396ED91FC9114978389DC
:104080008C3069F038F48B30A1F580E090E0A0EA44
:10409000B2E409C08531C1F08631B1F02AC080E0B8
:1040A00090E0AEEBB2E4888F998FAA8FBB8F80E04F
:1040B00090E0A0EAB1E48C8F9D8FAE8FBF8F80E03F
:1040C00090E0A0EAB0E410C080E090E0A8ECB2E498
:1040D000888F998FAA8FBB8F1C8E1D8E1E8E1F8E70
:1040E0008DEC9CECACECBDE388A399A3AAA3BBA385
:1040F0000CC0188E198E1A8E1B8E1C8E1D8E1E8E55
:104100001F8E18A219A21AA21BA2DF91CF911F9194
:104110000F910895DC01ED91FC910190F081E02D6B
:104120001994CF92DF92EF92FF920F931F93CF9348
:10413000DF9300D000D0CDB7DEB768E670E08DE346
:1041400096E00E948D3260E070E08DE396E0E2DF61
:104150008DE396E00E94023347E050E068E670E0AD
:104160008DE396E00E9400338DE396E00E94AD312E
:104170008F77982F92959F701AEF082F919F000DBF
:1041800011248DE396E00E94AD319C01332794E029
:10419000359527959A95E1F7F82E129FF00C11248A
:1041A0008DE396E00E94AD319C01332744E03595C4
:1041B00027954A95E1F7E82E129FE00C11248DE334
:1041C00096E00E94AD318DE396E00E94AD319C01F6
:1041D000332754E0359527955A95E1F7D82E129F4D
:1041E000D00C11248DE396E00E94AD319C01332761
:1041F00064E0359527956A95E1F7C82E129FC00CAB
:1042000011248DE396E00E94AD319C01332774E0C8
:10421000359527957A95E1F7482F129F400D112487
:10422000242F3C2D4D2D5E2D6F2D702F80E090E0C2
:1042300026960FB6F894DEBF0FBECDBFDF91CF91AB
:104240001F910F91FF90EF90DF90CF900895FC01A8
:104250001082138214820895862F0C94683B862F57
:10426000642F0C943A3B862F642F0C94FE3A4F92A5
:104270005F926F927F928F929F92AF92BF92CF92F6
:10428000DF92EF920F93CF93DF93EC016B014A0122
:1042900059010296DCDF83EB93E0998388832E013A
:1042A0008BE1480E511C3E018DE4680E711CC20169
:1042B000CEDF85E0480E511C46145704C1F7FE01BD
:1042C000E95AFF4F918280823296B182A082329663
:1042D00000833196E0823797D182C08238968AE097
:1042E00090E091838083329684EF91E09183808384
:1042F000339611821082719710821182128213827A
:10430000CF59DF4F1882DF91CF910F91EF90DF905F
:10431000CF90BF90AF909F908F907F906F905F9065
:104320004F9008952F923F924F925F926F927F929B
:104330008F929F92AF92BF92CF92DF92EF92FF92B5
:104340000F931F93CF93DF93CDB7DEB728970FB6A8
:10435000F894DEBF0FBECDBF98878F8310E05C015D
:104360002BE5A20EB11C7C0137E5E30EF11CD50153
:104370008C911817B8F0312CEF81F885E45AFF4F73
:10438000FC83EB83CF80D884F9E5CF0ED11C412C80
:10439000512C320143942F813885295A3F4F3E8357
:1043A0002D8360C0F701A081B181A10FB11DEF8104
:1043B000F88580819181FC012081318142E06C91FE
:1043C0008F819885F90119951F5FD1CF022D10E0DB
:1043D000AD81BE818D919C91DC01A00FB11F048045
:1043E000F581E02D6C918F8198851995000F111F33
:1043F000EF81F885E00FF11F892B09F06FC08781ED
:10440000908529813A81822B932B908787832394EF
:10441000D5018C91AF81B885ED91FC912816B0F251
:10442000D6018D919C91DC01AE0DBF1D0280F38100
:10443000E02D41E06C918F8198851995F60180817E
:104440009181DC01AE0DBF1DEF81F88580819181E6
:10445000FC012081318140E06C918F819885F901C8
:1044600019953394AB81BC818C913816E0F5E32C1F
:10447000F12CF601A081B181AE0DBF1DEF81F88551
:1044800080819181FC012081318141E06C918F819B
:104490009885F9011995F601A081B181AE0DBF1D76
:1044A000EF81F88580819181FC012281338140E098
:1044B0006C918F819885F9011995D301C201032C64
:1044C00004C0880F991FAA1FBB1F0A94D2F79A83B2
:1044D00089834C0180949094212C9ACF8781908578
:1044E0008821992192CF28960FB6F894DEBF0FBE8F
:1044F000CDBFDF91CF911F910F91FF90EF90DF9093
:10450000CF90BF90AF909F908F907F906F905F9073
:104510004F903F902F900895FC0180E090E0248D13
:10452000358D2617370739F0019635968A30910573
:10453000B1F78FEF9FEF0895DC0125E0629FA00D9A
:10454000B11D11245E964C935E9721E05F962C93EB
:104550005F97FC01EF59FF4F208131960190F08168
:10456000E02D222331F0309749F0611107C0DC01C2
:1045700002C0309719F05B968C9119940895CF92F0
:10458000DF92EF92FF920F931F93CF93DF93EC0193
:10459000162F042FFC0185E0689FE00DF11D11240A
:1045A000178E868D8130A9F030F0823069F183302A
:1045B000C9F540E02CC04423A9F141E0CE01BCDFA5
:1045C0000E94E738C35BDF4F688379838A839B83CC
:1045D00029C00E94E738FE01E35BFF4FC080D18015
:1045E000E280F380AB01BC014C195D096E097F09C3
:1045F000729680819181A0E0B0E084179507A607AC
:10460000B70710F442E003C001110CC043E0612F72
:10461000CE01DF91CF911F910F91FF90EF90DF902E
:10462000CF908ACFDF91CF911F910F91FF90EF90A4
:10463000DF90CF9008952F923F924F925F926F92AA
:104640007F928F929F92AF92BF92CF92DF92EF9222
:10465000FF920F931F93CF93DF9300D000D0CDB77D
:10466000DEB79E838D837C015C0122E3A20EB11C28
:10467000FC018FEF9FEF268D211104C0138E958FC3
:10468000848F178E3596AE16BF06A9F7512C8D81F3
:104690009E81855A9F4F9A838983AD81BE81A45A9A
:1046A000BF4FBC83AB836D807E80B5E56B0E711C04
:1046B00085E0282EE981FA818081581608F057C0DC
:1046C000412C0D811E81050D111D050D111D095F68
:1046D0001F4FAB81BC818C90481408F046C0F80194
:1046E000C080D180042C02C0D694C7940A94E2F70B
:1046F000FC2DF1703F2E589C40011124840C911C1C
:10470000B4018D819E8108DF97FD05C0432D682F80
:104710008D819E8120C0019631F5C0FE24C0ED81BF
:10472000FE8160E070E0838D811117C0D301ED91AF
:10473000FC91E80DF91D8081269EF001279EF00D69
:1047400011242D813E81E20FF31F838F958E848E7D
:10475000168E432DC90113DF06C06F5F7F4F35965C
:104760006A30710501F74394B4CF5394A3CF80E02E
:10477000D7015F969C91911181E0B5E0EB0EF11CA1
:10478000AE14BF04A9F726960FB6F894DEBF0FBE8D
:10479000CDBFDF91CF911F910F91FF90EF90DF90F0
:1047A000CF90BF90AF909F908F907F906F905F90D1
:1047B0004F903F902F900895CF92DF92EF92FF920B
:1047C0000F931F93CF93DF93EC010E94E7388E0184
:1047D0000F5A1F4FF801C080D180E280F380AB01F7
:1047E000BC014C195D096E097F093C96808191815D
:1047F000A0E0B0E084179507A607B70768F4CE01DC
:1048000091DDCE0118DFC82F0E94E738F8016083E0
:1048100071838283938301C0C0E08C2FDF91CF919D
:104820001F910F91FF90EF90DF90CF9008950F931D
:104830001F93CF93DF93EC018C010F591F4F81E041
:10484000F8018083CE01B8DF882341F08F8D882363
:1048500029F08E8D813011F48B8D03C0F801108208
:1048600080E0DF91CF911F910F910895CF93DF9357
:10487000EC0160E08E810E943A3B81E090E00E9472
:10488000513961E08E810E943A3B81E090E00E94C4
:10489000513960E08E810E943A3B84E690E0DF91DE
:1048A000CF910C945139CF92DF92EF92FF920F93F8
:1048B0001F93CF93DF936C017C0187E0E80EF11C1E
:1048C000C0E0D0E0062F10E0B8010C2E02C07595B4
:1048D00067950A94E2F76170F70181917F010E9468
:1048E0003A3B2196C430D10579F7C601DF91CF91CB
:1048F0001F910F91FF90EF90DF90CF90B7CFCF92A5
:10490000DF92EF92FF920F931F93CF93DF936C018F
:104910007C0187E0E80EF11CC0E0D0E0062F10E03B
:10492000B8010C2E02C0759567950A94E2F7617084
:10493000F70181917F010E943A3B2196C830D10551
:1049400079F7C601DF91CF911F910F91FF90EF9002
:10495000DF90CF908BCF1F93CF93DF93EC01162F77
:10496000642F8C810E943A3B8D818F3F19F060E06B
:104970000E943A3B8F85612F84FF05C0CE01DF91F5
:10498000CF911F91BCCF70E084E0759567958A95B3
:10499000E1F7CE0188DF612FCE01DF91CF911F912A
:1049A00082CF40E0D8CF61E0FCDF80ED97E00C944F
:1049B0005139FC01443008F043E08389481710F076
:1049C0004FEF480FDF01A40FB11D54969C91690F62
:1049D0006068CF01E6CFFC016089262F2460208B20
:1049E0006C60DFCFEF92FF920F931F93CF93DF9313
:1049F000EC01423018F08F8588608F874B8B1C8AC2
:104A000080E48D8B6E8B70E0605C7F4F6F8B222318
:104A100029F0413019F48F8584608F8761E08C81A3
:104A20000E94FE3A8D818F3F19F061E00E94FE3AAC
:104A300061E08E810E94FE3A7E0187E0E80EF11C63
:104A400000E010E08F8584FD03C084E090E002C0A8
:104A500088E090E0081719074CF461E0F7018191B4
:104A60007F010E94FE3A0F5F1F4FECCF80E593EC71
:104A70000E94513960E08C810E943A3B60E08E8157
:104A80000E943A3B8D818F3F19F060E00E943A3BD3
:104A90006F8564FD19C063E0CE0105DF84E991E113
:104AA0000E94513963E0CE01FEDE84E991E10E946B
:104AB000513963E0CE01F7DE86E990E00E9451397A
:104AC00062E0CE01F0DE13C06062CE016ADF84E9ED
:104AD00091E10E9451396F856062CE0162DF86E903
:104AE00090E00E9451396F856062CE015ADF6F8578
:104AF0006062CE0156DF84E0888BCE016CDFCE0190
:104B000052DF82E0898B66E0CE01DF91CF911F9169
:104B10000F91FF90EF9045CFCF92EF920F93FC0152
:104B2000138212828DEB93E09183808364838FEFF5
:104B30008583468327830087E186C2861386148691
:104B400015861686178620E041E060E1CF010F91BF
:104B5000EF90CF9047CFEF92FF920F931F93CF9399
:104B6000DF938C017A01677088E0689FB00111249F
:104B70006064C80116DFE701A8E0EA0EF11C699144
:104B8000D801ED91FC910190F081E02DC8011995BB
:104B9000CE15DF05A1F7DF91CF911F910F91FF9007
:104BA000EF90089541E0D7DE81E090E00895BC01E8
:104BB0006E5F7F4FDC01ED91FC910190F081E02D63
:104BC00040E0199591E0811190E0892F0895AF920E
:104BD000BF92CF92DF92EF92FF920F931F93CF93EA
:104BE000DF936C01A42E79016068B62E80E590E019
:104BF0000E94CC0E60E0F60186850E943A3BAA94A2
:104C00008B2D0E941A160023A1F0CFEFD0E001C037
:104C1000CC0F0A95EAF78B2D0E941A162C2F20959F
:104C2000F701908192238C23892BF701808311E077
:104C300001C010E0812F90E0E701C80FD91F1A15BD
:104C400030F48B2D0E941A1688831F5FF3CF80E00B
:104C50000E941A16888361E0F60186850E943A3B1D
:104C6000DF91CF911F910F91FF90EF90DF90CF9048
:104C7000BF90AF900C94E60EFC0189EC93E0918319
:104C800080836687478708950F931F93CF93DF93A1
:104C9000EC01062F142F80E590E00E94CC0E60E01E
:104CA0008E850E943A3B802F0E941A16812F0E9407
:104CB0001A1661E08E850E943A3BDF91CF911F91D9
:104CC0000F910C94E60EDF92EF92FF920F931F93D9
:104CD000CF93DF938C01C62FF42ED22EE32E80E5E6
:104CE00090E00E94CC0E60E0F80186850E943A3B7D
:104CF0008C2F0E941A16CD2DDE2DCE018F0D911D09
:104D00007C01EC16FD0621F089910E941A16F9CF5C
:104D100061E0F80186850E943A3BDF91CF911F91B7
:104D20000F91FF90EF90DF900C94E60E1F93CF93BE
:104D3000DF93EC01162F80E590E00E94CC0E60E03E
:104D40008E850E943A3B812F80680E941A1680E06F
:104D50000E941A16182F61E08E850E943A3B0E942D
:104D6000E60E812FDF91CF911F9108950F9341118E
:104D70002EDF0F9108950F931F93CF93DF938C0134
:104D8000D62FC42FD3DF482F4C2B6D2FC801DF91B6
:104D9000CF911F910F9178CF0F931F93CF93DF93F4
:104DA0008C01D62FC42FC2DFC0954C2F48236D2F06
:104DB000C801DF91CF911F910F9166CFCF92DF9203
:104DC000EF92FF920F931F93CF93DF93EC016B0150
:104DD000F42E890140E062E057DF44E06AE0CE0152
:104DE00053DF40E864E1CE014FDF96014F2D62E1D1
:104DF000CE0169DF43E062E0CE0146DF0E94E73882
:104E00006B017C0129E5C20ED11CE11CF11C6AE09A
:104E1000CE018CDF82FF10C040E062E0CE0134DFC3
:104E200064E4CE0183DFF801808362E4CE017EDF9B
:104E3000F801818380E00AC00E9489360E94E73829
:104E40006C157D058E059F0510F383E0DF91CF91F2
:104E50001F910F91FF90EF90DF90CF9008950F93E7
:104E60001F93CF938C014FE062E00EDFC3E062E35B
:104E700070E080E090E00E94183962E0C80156DFDF
:104E800084FF02C0C15099F7CF911F910F910895EF
:104E9000CF93DF93EC0168E249DF982F9370933052
:104EA00039F0482F436068E2CE01DF91CF91ECCE1C
:104EB000DF91CF910895CF93DF93EC0161E08E8570
:104EC0000E94FE3A61E08E850E943A3B8F858F3FBB
:104ED00009F447C060E00E94FE3A8F850E94683B5B
:104EE000892B09F03EC061E08F850E94FE3A60E0A8
:104EF0008F850E943A3B82E090E00E94513961E048
:104F00008F850E943A3B62E370E080E090E00E946F
:104F1000183940E064E2CE01B7DE40E066E2CE013F
:104F2000B3DE46E268E4CE01AFDE40E864E5CE01E0
:104F3000ABDE49EA66E5CE01A7DE43E068E5CE01D7
:104F4000A3DE48EE6AE5CE019FDE40E46AE2CE01D0
:104F50009BDE4DE362E2CE0197DECE01DF91CF9181
:104F600097CFCE017CDFD5CF2F923F924F925F92A9
:104F70006F927F928F929F92AF92BF92CF92DF9269
:104F8000EF92FF920F931F93CF93DF931F921F9285
:104F9000CDB7DEB73C01162F942E2901A114B10420
:104FA00019F0F501408101C040E0342EF0E18F9E00
:104FB000300C112440E062E0C30166DE4FE768E098
:104FC000C30162DE40E864E1C3015EDE9201402F6E
:104FD00062E1C30178DE432D6AE1C30155DE412F52
:104FE00062E0C30151DE1C3021F440E86AE1C301F4
:104FF000C2DE0E94E7381B012C0124E2220E311C84
:10500000411C511C68E0C30191DE982F992171F475
:1050100080FF02C083E06AC00E9489360E94E738A0
:10502000621573058405950568F3F4CF6CE0C30140
:105030007DDE182F837109F056C0E114F104E1F010
:10504000C114D104C9F064E1C30170DEF60190819E
:10505000981708F442C08083082D9701482F62E119
:10506000C30184DE68E1C30161DE8770A114B1046D
:1050700021F0F501808301C080E013FD30C0E11410
:10508000F10479F1C114D10461F1988D992349F1AA
:10509000F6014081413021F4843039F58FEF26C08C
:1050A000423018F1811121C042509E012F5F3F4FC5
:1050B000B701C30183DE811119C0F6018081E80EBA
:1050C000F11CF70132979081898198130EC03196B7
:1050D00090818A81981309C004C084E007C082E0EF
:1050E00005C080E003C081E001C087E00F900F9011
:1050F000DF91CF911F910F91FF90EF90DF90CF90B4
:10510000BF90AF909F908F907F906F905F904F90E7
:105110003F902F9008958F92AF92BF92CF92DF92DF
:10512000EF92FF920F931F93AF928C2C570168015F
:105130007901042F9B0140E36CE016DF0F901F9173
:105140000F91FF90EF90DF90CF90BF90AF908F9036
:1051500008952F923F924F925F926F927F928F921B
:105160009F92AF92BF92CF92DF92EF92FF920F93F6
:105170001F93CF93DF93CDB7DEB72C970FB6F8947C
:10518000DEBF0FBECDBF413508F000C1342E3B015C
:105190004C0140E86CE100DE2224239432E0231627
:1051A00091F083E02816E1F091E02912F3C083E941
:1051B00089833320D1F081E0F3019081953008F4A8
:1051C00080E0B12C17C0F5E9F983332081F081E04C
:1051D000F3019081983008F480E043E0B42E0AC0D7
:1051E00087E9898336E0B32E04C0B12C02C023E0E6
:1051F000B22E80E0D32CF8E0BF9ED0181124D7FC4B
:10520000D12C882321F098E89B8333E001C032E061
:1052100021E09D2D977009F420E09D2D95959595A1
:105220009595290F31F4882309F48DC038E0D30E09
:105230008AC0811102C094E001C093E0291708F4EC
:10524000922FEB2DF0E03196E60DF71D232F4191C3
:10525000A1E0B0E0AC0FBD1FA20FB11D4C932F5FBA
:10526000422F431B491798F3DECF8111D8C09FE12D
:105270009D150CF491C080E2D82E90E79A839B8113
:105280008C8189279D8189279E8189278F839E0113
:10529000285F3F4F47E0BE016F5F7F4FC4018EDD47
:1052A0008111BDC01B86E3E0EA87CE0107962C0181
:1052B00099E09C87CB844C2D4295407F4C0D6AE150
:1052C000C401E2DCA12CCE010B967C018E01065FAD
:1052D0001F4F92014C85BE016F5F7F4FC4011BDFE2
:1052E000823009F0C2CF6CE1C40120DD85FD50C0E1
:1052F0008F7109F480E2282F30E04D2DDD0C550B25
:10530000421753070CF046C0D82E85958595859594
:1053100091E0980F422F477081E009F480E0890FF7
:10532000E1E0F0E0EC0FFD1FE80FF11D2150310925
:105330002770332781E090E001C0880F2A95EAF7B3
:105340009081892B80838FE18D150CF496CF9D2D54
:1053500097709B878D2D8595859585958E5F292FD7
:10536000E0E18E9F200D11242A8321E0911101C0DC
:1053700020E0280F2C8744244394512C4C0E5D1EB2
:10538000480E511CF9E0F81BFA8794CF86E047C01D
:1053900082E045C085E043C08B818838E9F182E036
:1053A00094E0EB2DF0E03196E60DF71D980FA1E0AB
:1053B000B0E0AC0FBD1FA80FB11D2C9121938F5FE2
:1053C0009813F5CF8A85833019F58B85811120C01C
:1053D0009E012D5F3F4F41E0B201C401EFDC81111E
:1053E0001EC09B81F2018181981314C09C8182812F
:1053F000981310C0808182FF02C02394CFCEF301A6
:105400008387822D880F820D8F5F808380E007C0A5
:1054100081E005C087E003C083E093E0C2CF2C9613
:105420000FB6F894DEBF0FBECDBFDF91CF911F91B5
:105430000F91FF90EF90DF90CF90BF90AF909F9033
:105440008F907F906F905F904F903F902F90089536
:105450004F925F926F927F928F929F92AF92CF9274
:10546000EF92FF920F931F93CF93DF931F921F92A0
:10547000CDB7DEB76A834115510529F1F901608185
:10548000623008F149012A013C0140E86CE184DC0A
:1054900087E08983A12CC12CCE0101967C01840177
:1054A000920141E0BE016E5F7F4FC30134DE811186
:1054B0000DC0F4018081823041F481E09981911125
:1054C00005C080E003C084E001C081E00F900F9030
:1054D000DF91CF911F910F91FF90EF90CF90AF9000
:1054E0009F908F907F906F905F904F9008959A015A
:1054F000AB0166E2ADCF0F931F93CF93DF9300D044
:10550000CDB7DEB78C0182E08B8340E064E2C80156
:10551000BBDB40E066E2C801B7DB46E268E4C801F5
:10552000B3DBAE014D5F5F4FBE016F5F7F4FC801C0
:10553000DEDF982F81E0992319F0923009F080E0A6
:105540000F900F900F90DF91CF911F910F910895C1
:10555000CF92DF92EF92FF920F931F93CF93DF933F
:105560007B016A01082F10E0E801C15DDA4F8881F4
:1055700087FF04C0FB011182108224C08CE0809F51
:105580009001819F300D11248881A901480F511D80
:1055900087FD5A9580912E0590E04817590794F49D
:1055A0008881A901480F511D87FD5A95CA01FA014A
:1055B000EE0FFF1F8E0F9F1FFC01ED5CFA4F8081E5
:1055C00086FD19C088818F5F88838CE0809F900161
:1055D000819F300D11248881A901480F511D87FD3D
:1055E0005A9580912E0590E048175907BCF48881A0
:1055F0008C3044F113C08881280F311D87FD3A9506
:10560000F901EE0FFF1F2E0F3F1FF901ED5CFA4F5E
:10561000808160E08F730E943A3BD4CFF701808194
:105620009181049680349C4918F480E49CE904C07C
:10563000F701808191810496F601918380838FEF39
:10564000888345C0F701408151818881B901680F85
:10565000711D87FD7A95CB01FB01EE0FFF1F8E0FA9
:105660009F1FFC01ED5CFA4F81819281840F951F91
:10567000F601918380838881A901480F511D87FD20
:105680005A95CA01FA01EE0FFF1F8E0F9F1FFC01F2
:10569000ED5CFA4F808186FF1AC08881280F311D8A
:1056A00087FD3A95F901EE0FFF1F2E0F3F1FF901FD
:1056B000ED5CFA4F808161E08F73DF91CF911F9194
:1056C0000F91FF90EF90DF90CF900C943A3BDF91D9
:1056D000CF911F910F91FF90EF90DF90CF900895A1
:1056E0001F920F920FB60F9211240BB60F922F93A9
:1056F0003F934F935F936F937F938F939F93AF935A
:10570000BF93EF93FF9348E850E064E870E081E0D6
:105710001FDFFF91EF91BF91AF919F918F917F918B
:105720006F915F914F913F912F910F900BBE0F9012
:105730000FBE0F901F9018951F920F920FB60F92E9
:1057400011240BB60F922F933F934F935F936F9358
:105750007F938F939F93AF93BF93EF93FF9348E90A
:1057600050E064E970E082E0F3DEFF91EF91BF91D9
:10577000AF919F918F917F916F915F914F913F91E9
:105780002F910F900BBE0F900FBE0F901F9018958A
:105790001F920F920FB60F9211240BB60F922F93F8
:1057A0003F934F935F936F937F938F939F93AF93A9
:1057B000BF93EF93FF9348EA50E064EA70E083E020
:1057C000C7DEFF91EF91BF91AF919F918F917F9134
:1057D0006F915F914F913F912F910F900BBE0F9062
:1057E0000FBE0F901F9018951F920F920FB60F9239
:1057F00011240BB60F922F933F934F935F936F93A8
:105800007F938F939F93AF93BF93EF93FF9348E260
:1058100051E064E271E080E09BDEFF91EF91BF9187
:10582000AF919F918F917F916F915F914F913F9138
:105830002F910F900BBE0F900FBE0F901F901895D9
:10584000FC0190912E059033A0F481E0890F8093A4
:105850002E059083892F90E0FC01EE0FFF1F8E0F25
:105860009F1FFC01ED5CFA4F88EB9BE092838183E4
:1058700008958FEF80830895DF92EF92FF920F9348
:105880001F93CF93DF93EC01D62E7A018901888193
:10589000803308F068C061E08D2D0E94FE3A888157
:1058A000E82FF0E09F01220F331FE20FF31FED5CA2
:1058B000FA4F9D2D9F732081207CD22ED92AD08231
:1058C00020E232E02E193F0937FF02C02D5F3F4F23
:1058D0003595279535952795298320E639E0201BB6
:1058E000310B37FF02C02D5F3F4F3595279535951A
:1058F00027952A832CE0622F0E945A3E289FB001F0
:10590000112440E050E09B01240F351FF901EE0FF8
:10591000FF1F2E0F3F1FF901ED5CFA4F908196FD9E
:1059200016C04F5F5F4F4C30510569F7813021F54C
:105930001092800082E08093810010928500109286
:105940008400B19A80916F00826080936F00E8813B
:10595000F0E0CF01880F991FE80FF91FED5CFA4FB7
:105960008081806480838881DF91CF911F910F9126
:10597000FF90EF90DF900895823061F410929000D4
:1059800080939100109295001092940088BB8093B0
:105990007100DDCF833069F41092A00082E0809323
:1059A000A1001092A5001092A40089BB8093720000
:1059B000CECF8111CCCF1092200182E080932101C3
:1059C00010922501109224018ABB80937300BFCFEF
:1059D00020E639E040E252E04FCFFC019081903365
:1059E00088F5818128E830E0281B310987FD33954F
:1059F000220F331F220F331F6217730784F0828137
:105A000048E552E0481B510987FD5395440F551F47
:105A1000440F551F9B01461757070CF49A0122505B
:105A20003109220F331F4FB7F894892F90E0FC0102
:105A3000EE0FFF1F8E0F9F1FFC01ED5CFA4F3283AC
:105A400021834FBF0895AF92BF92CF92DF92EF9222
:105A5000FF920F931F93CF93DF93EC01603282E0AC
:105A600078070CF03FC077FD06C0653B71052CF050
:105A700064EB70E002C060E070E0898128E830E00B
:105A80005901A81AB10887FDB394AA0CBB1CAA0C33
:105A9000BB1C0B2C000CCC08DD08072E000C880B5F
:105AA000990B2A8108E512E0021B110927FD1395C5
:105AB000000F111F000F111F012E000C220B330BC2
:105AC0003F932F931F930F9314EBE12EF12C00E0E3
:105AD00010E020E030E0A9010E94903B0F900F9071
